{
  "contractName": "helloWorld",
  "abi": [
    {
      "constant": true,
      "inputs": [],
      "name": "renderHelloWorld",
      "outputs": [
        {
          "internalType": "string",
          "name": "",
          "type": "string"
        }
      ],
      "payable": false,
      "stateMutability": "pure",
      "type": "function"
    }
  ],
  "bytecode": "0x608060405234801561001057600080fd5b5061011d806100206000396000f3fe6080604052348015600f57600080fd5b506004361060285760003560e01c8063942ae0a714602d575b600080fd5b603360ab565b6040518080602001828103825283818151815260200191508051906020019080838360005b8381101560715780820151818401526020810190506058565b50505050905090810190601f168015609d5780820380516001836020036101000a031916815260200191505b509250505060405180910390f35b60606040518060400160405280600a81526020017f68656c6c6f576f726c640000000000000000000000000000000000000000000081525090509056fea265627a7a72315820fcf6a3407d1699e1462a1ae96d09aad8ed761e752a4278ea3ed0c18374096a6564736f6c63430005100032",
  "source": "pragma solidity ^0.5.16;\r\n\r\n\r\ncontract helloWorld {\r\n function renderHelloWorld () public pure returns (string memory) {\r\n   return 'helloWorld';\r\n }\r\n}",
  "sourcePath": "C:/Users/tonne/Desktop/btc/Nouveau dossier/1/contracts/helloworl.sol",
  "compiler": {
    "name": "solc",
    "version": "0.5.16+commit.9c3226ce.Emscripten.clang"
  },
  "schemaVersion": "3.3.2",
  "updatedAt": "2020-11-20T06:10:46.433Z",
  "devdoc": {
    "methods": {}
  },
  "userdoc": {
    "methods": {}
  }
}